{
	"contractName": "IPFS",
	"abi": [
		{
			"inputs": [
				{
					"internalType": "string",
					"name": "x",
					"type": "string"
				}
			],
			"name": "sendHash",
			"outputs": [],
			"stateMutability": "nonpayable",
			"type": "function"
		},
		{
			"inputs": [],
			"name": "getHash",
			"outputs": [
				{
					"internalType": "string",
					"name": "",
					"type": "string"
				}
			],
			"stateMutability": "view",
			"type": "function",
			"constant": true
		}
	],
	"bytecode": "0x608060405234801561001057600080fd5b50610685806100206000396000f3fe608060405234801561001057600080fd5b50600436106100365760003560e01c8063d13319c41461003b578063dfb2993514610059575b600080fd5b610043610075565b60405161005091906101b3565b60405180910390f35b610073600480360381019061006e919061031e565b610107565b005b60606000805461008490610396565b80601f01602080910402602001604051908101604052809291908181526020018280546100b090610396565b80156100fd5780601f106100d2576101008083540402835291602001916100fd565b820191906000526020600020905b8154815290600101906020018083116100e057829003601f168201915b5050505050905090565b8060009081610116919061057d565b5050565b600081519050919050565b600082825260208201905092915050565b60005b83811015610154578082015181840152602081019050610139565b83811115610163576000848401525b50505050565b6000601f19601f8301169050919050565b60006101858261011a565b61018f8185610125565b935061019f818560208601610136565b6101a881610169565b840191505092915050565b600060208201905081810360008301526101cd818461017a565b905092915050565b6000604051905090565b600080fd5b600080fd5b600080fd5b600080fd5b7f4e487b7100000000000000000000000000000000000000000000000000000000600052604160045260246000fd5b61022b82610169565b810181811067ffffffffffffffff8211171561024a576102496101f3565b5b80604052505050565b600061025d6101d5565b90506102698282610222565b919050565b600067ffffffffffffffff821115610289576102886101f3565b5b61029282610169565b9050602081019050919050565b82818337600083830152505050565b60006102c16102bc8461026e565b610253565b9050828152602081018484840111156102dd576102dc6101ee565b5b6102e884828561029f565b509392505050565b600082601f830112610305576103046101e9565b5b81356103158482602086016102ae565b91505092915050565b600060208284031215610334576103336101df565b5b600082013567ffffffffffffffff811115610352576103516101e4565b5b61035e848285016102f0565b91505092915050565b7f4e487b7100000000000000000000000000000000000000000000000000000000600052602260045260246000fd5b600060028204905060018216806103ae57607f821691505b6020821081036103c1576103c0610367565b5b50919050565b60008190508160005260206000209050919050565b60006020601f8301049050919050565b600082821b905092915050565b6000600883026104297fffffffffffffffffffffffffffffffffffffffffffffffffffffffffffffffff826103ec565b61043386836103ec565b95508019841693508086168417925050509392505050565b6000819050919050565b6000819050919050565b600061047a6104756104708461044b565b610455565b61044b565b9050919050565b6000819050919050565b6104948361045f565b6104a86104a082610481565b8484546103f9565b825550505050565b600090565b6104bd6104b0565b6104c881848461048b565b505050565b5b818110156104ec576104e16000826104b5565b6001810190506104ce565b5050565b601f82111561053157610502816103c7565b61050b846103dc565b8101602085101561051a578190505b61052e610526856103dc565b8301826104cd565b50505b505050565b600082821c905092915050565b600061055460001984600802610536565b1980831691505092915050565b600061056d8383610543565b9150826002028217905092915050565b6105868261011a565b67ffffffffffffffff81111561059f5761059e6101f3565b5b6105a98254610396565b6105b48282856104f0565b600060209050601f8311600181146105e757600084156105d5578287015190505b6105df8582610561565b865550610647565b601f1984166105f5866103c7565b60005b8281101561061d578489015182556001820191506020850194506020810190506105f8565b8683101561063a5784890151610636601f891682610543565b8355505b6001600288020188555050505b50505050505056fea26469706673582212208d090254a0e8d885cddd62552ed429e77b0126166461e4f20621962e1c85edf064736f6c634300080f0033",
	"immutableReferences": {},
	"source": "// SPDX-License-Identifier: MIT\npragma solidity ^0.8.3;\ncontract IPFS {\n    string ipfsHash;\n    \n    function sendHash(string memory x) public {\n        ipfsHash = x;\n    }\n    \n    function getHash() public view returns (string memory) {\n        return ipfsHash;\n    }\n}",
	"sourcePath": "/home/karlopenguini/FlutterApps/blockchain_prototype/prototype/contracts/contracts/IPFSContract.sol",
	"compiler": {
		"name": "solc",
		"version": "0.8.15+commit.e14f2714.Emscripten.clang"
	},
	"schemaVersion": "3.4.7",
	"updatedAt": "2022-06-27T12:57:40.875Z",
	"networkType": "ethereum",
	"devdoc": {
		"kind": "dev",
		"methods": {},
		"version": 1
	},
	"userdoc": {
		"kind": "user",
		"methods": {},
		"version": 1
	}
}